:020000040800F2
:10000000700A002019010008F3010008EF01000840
:10001000F1010008EB010008C10300080000000026
:100020000000000000000000000000009D02000829
:10003000ED010008000000009B0200089F0200087C
:1000400033010008330100083301000833010008C0
:1000500033010008330100083301000833010008B0
:1000600033010008330100083301000833010008A0
:100070003301000833010008330100083301000890
:100080003301000833010008330100083301000880
:10009000BD030008330100083301000833010008E4
:1000A0003301000833010008330100083301000860
:1000B0003301000833010008330100083301000850
:1000C0003301000833010008330100083301000840
:1000D0003301000833010008330100083301000830
:1000E000330100083301000833010008000000005C
:1000F0000000000000000000000000000000000000
:1001000033010008DFF80CD000F040F80048004749
:10011000F90B0008700A002006488047064800478F
:10012000FEE7FEE7FEE7FEE7FEE7FEE7FEE7FEE7A7
:10013000FEE7FEE7A502000805010008D2B201E0D3
:1001400000F8012B491EFBD270470022F6E710B5DC
:1001500013460A4604461946FFF7F0FF204610BD35
:1001600030B50B46014600202022012409E021FA87
:1001700002F59D4205D303FA02F5491B04FA02F584
:100180002844151EA2F10102F1DC30BD064C074DDA
:1001900006E0E06840F0010394E807009847103457
:1001A000AC42F6D3FFF7B2FF80230008A02300087B
:1001B00030B58C1810F8012B12F00F0301D110F894
:1001C000013B120906D110F8012B03E010F8015B86
:1001D00001F8015B5B1EF9D101E001F8013B521E01
:1001E000FBD1A142E6D3002030BDFEE77047FEE719
:1001F000FEE770474FF4702000F0B2BB00F01F0123
:100200000122800902FA01F17047D4F884002946DE
:10021000C2682046104705F58162204602211F234F
:1002200070474FF4702000F0BDBB835823EA0101F2
:10023000815070470261026911430161704705F204
:100240001742204601F012B8835819438150704775
:10025000C260C2681143C1607047810900F01F008D
:10026000895821FA00F000F0010070471143416104
:100270007047104308607047316821F00101316018
:1002800070BD316C21F00101316470BD306C40F003
:10029000010030644FF4702070477047704700F0E1
:1002A00023BB000018B54048016841F0010101601E
:1002B00001688907FCD5416841F080014160002157
:1002C000009100994F2902D800990131F8E741685F
:1002D00041F0900141600021009100994F2902D81E
:1002E00000990131F8E74168304A314B21F00301B0
:1002F0004160016811400160416819404160016836
:1003000011400160016821F480210160294943689E
:100310000B40436003681A4002604FF41F02826082
:10032000026842F4803202604FF6FE72531E046887
:10033000934203D214F400321A46F7D002689203B3
:1003400000D4FEE7426801F5430142604268426022
:10035000426842F480624260426822F44032426065
:10036000426842F44032426042681140124A4160A1
:10037000416811434160016841F08071016001688A
:100380008901FCD5416821F003014160416841F0D9
:100390000201416041680907FCD54FF0006000216F
:1003A000BDE8184000F0BCBE00100240FFFFF6FEA2
:1003B0000C00FFE8FFFF00F700001C0801F01EBD65
:1003C000FEE7B0B50446C07C40B1D4F88810E06BBD
:1003D00000220025CB6A00219847E574A078032805
:1003E00005D1D4F88400016909B120468847D4F8C2
:1003F000880000210025826A20469047607828B155
:10040000D4F88800C168204688476570B0BDB0B593
:10041000044680780D46032805D1D4F8840041694C
:1004200009B12046884705EB45000021002204EB76
:100430008000C0E90611D4F88810E06BCB6A002177
:10044000BDE8B0401847B0B50446D0F88800002198
:10045000002204F10B05036B28469847082816D1A3
:10046000287800F06000402807D020280AD070B912
:100470002046294601F0B2FD08E02046294601F059
:10048000D5FD03E02046294601F06AFA38B1D4F8D8
:100490008800426B20460021BDE8B0401047B4F808
:1004A000110040B195F90000B0F1FF3F0CDDD4F828
:1004B0008800826AEEE7D4F88810E06B0022CB6AED
:1004C0000021BDE8B0401847B4F84030E26B204648
:1004D0000021BDE8B04001F025BBB0B50446087866
:1004E0000D4600F0030002280CD0B0B9A07800F04F
:1004F000FE00022811D16888012802BF0020207266
:10050000B0BD0AE0A888A178032906D1698821B97D
:1005100040F08001C9B2802901D10120B0BDD4F8DA
:1005200088108A6BC1B220469047FFF76EFE00200C
:10053000B0BD8178032905D0022901D1017821B10C
:100540000120704701780029FAD04FF00111C0E96D
:100550000F0100207047B0B5044608780D4600F042
:10056000030001281AD0D0BB68880F21B1EB102FEF
:1005700017D0010A02291AD003291DD001292ED132
:10058000D4F8800000680178E063A4F84010E8889F
:10059000402804BF0820A4F8400020E0FFF735FE03
:1005A0001EE0D4F880008068A8B1418814E0D4F837
:1005B0008000406841880AE000F0FE0105290ED85D
:1005C000D4F88010C0B2C96851F820000178A4F8AE
:1005D0004010E06303E00021E063A4F84010012034
:1005E000B4F840209AB1E98889B18A4238BF1146EF
:1005F000B4F81100A4F84010814207D2208FB1FB5B
:10060000F0F202FB101008B90120E0740020B0BD28
:100610008278032A01D1097909B101207047D0F805
:1006200084204FF001110132C0E90F2100207047F2
:100630008A88097801F00301022910D0012927D006
:1006400021BB817801F0FE0102291FD10279017AD4
:10065000002A18BF0122002918BF911C13E08178DD
:10066000032913D102F07F03D1B203EB430301EB63
:10067000410100EB830300EB81013A33120658BFBE
:1006800001F1160319780A4A117008E001210CE003
:10069000110683784FF0010107D1032B05D1044ADD
:1006A0004FF00211C0E90F2100210846704700BF3A
:1006B00044010020012070478A8842B9CA8832B9B3
:1006C000897801F07F0141708278032A01D10120ED
:1006D000704709B1022100E00121817000207047BC
:1006E00070B5044648881D4E10F0FE0F307001D0E2
:1006F000012524E0A17803290ED00229F8D10106B2
:100700001CD0D4F884104A68C1B220469047032018
:10071000A0703078207011E0010612D02178C0B2AC
:1007200081420BD0D4F88400826820469047D4F8E8
:100730008400317842682046217090470025284681
:1007400070BDD4F8840000210025826820469047BF
:100750000220A07030782070F1E700BF4601002031
:100760000020704780B50A7802F00302022A0BD0FD
:10077000AAB9827802F0FE02022A10D14A88012129
:10078000012A0DD1017212E08A888378032B06D1E9
:10079000498821B942F08001C9B2802902D10121E2
:1007A000084680BDD0F888104B6BD1B29847002125
:1007B000F6E78278032A01D10A790AB1012070474D
:1007C000D0F884008978417000207047002070477D
:1007D00080B540F2026000F013FD4FF4C06000F0FD
:1007E0000FFD0648282103220123BDE8804000F0C8
:1007F00099B900BF0148012100F0E2B900080140A9
:10080000B0B540F2036000F0FBFC104C1021032255
:1008100004230425204600F085F96561B0BD00BFC2
:100820000148042101607047140C014010B5074CC9
:100830000421204600F0C4F9C0F101000421C2B235
:100840002046BDE8104000F067B900BF000C014031
:10085000B0B540F2026000F0D3FC40F20E6000F050
:10086000CFFCAA4C182103224FF40073A4F5405585
:10087000284600F057F92846042103224FF48063EC
:1008800000F050F9204600F0BDFF20464FF4E13162
:1008900000F094FF2046002101F013F820460021CB
:1008A00001F004F82046002100F0F5FF2046002169
:1008B00000F0ECFF2046002100F0E3FF2046042179
:1008C00000F0EEFF2046082100F0F5FF2046BDE8CD
:1008D000B04000F0C9BF00BF06490A6810440A686A
:1008E0008242FCD3704700BF0248016801310160B9
:1008F000704700BF4001002080B500F0ADF8002037
:1009000080BD0000B0B5154C21444BB1013B1446ED
:10091000002CFAD011F8015B013C00F8015BF7E70D
:100920000020B0BDF8B505460C481C46084440F20E
:10093000FF3120EA01067CB1304600F055F800276F
:10094000E959F01900F0A4F80437B7F5806FF7D132
:100950003D443E44013CEEE70020F8BD0060000845
:1009600070B5441E0025013C45F1000600F008F872
:10097000012801D1002EF6D1012808BF042070BD46
:1009800007480168C9071CBF012070470168C906F4
:100990004FBF03200068022101EA5000704700BFEA
:1009A0000C20024070B5441E0025013C45F10006B4
:1009B00000F008F8012801D1002EF6D1012808BF67
:1009C000042070BD07480168C9071CBF012070479B
:1009D0000168C9064FBF03200068022101EA5000E8
:1009E000704700BF4C200240B0B504463C48008828
:1009F000B0F5007F02D93C48844214D8FFF7FAFBD7
:100A000000B1B0BD374D286840F0020028606C602E
:100A1000286840F040002860FFF7ECFB296821F0CF
:100A200002012960B0BDFFF7FCFB0028E9D12D4D84
:100A3000286C40F0020028646C64E868800748BFB6
:100A40006C60286C40F040002864FFF7EAFB296CDA
:100A500021F002012964B0BD0A48C168090603D526
:100A600009490160094901601D490988B1F5007F04
:100A700006D9C16C090603D5034901640349016421
:100A8000704700BF0420024023016745AB89EFCDCA
:100A900070B5054612480C460088B0F5007F02D9B3
:100AA000114885420FD8FFF7A5FB00B170BD0D4E70
:100AB000306840F0010030604FF470202C60FFF788
:100AC0004FFFFFF7D9BBFFF7ACFB0028EED1054E77
:100AD000FFF7DCFB2C60FFF765FFFFF7D2BB00BF21
:100AE000E0F7FF1F10200240FEFF0708B0B5074DDA
:100AF0000446C1B2284600F081FE2846072100F0D6
:100B0000B8FE0028F9D02046B0BD00BF0038014033
:100B100041617047016170471023002A08BF142308
:100B2000195070472DE9F04701F00F0ACC0600F18B
:100B3000140C00F1100E4FF001094FF00F0848BFE0
:100B40004AEA020A00260027082F17D009FA07F2FE
:100B500012EA03050FD00268282903D0482903D1DF
:100B6000744600E06446256008FA06F50AFA06F4C1
:100B7000AA432243026004360137E5E7082600272E
:100B80004FF001094FF00F08102E08BFBDE8F087A5
:100B900009FA06F212EA03050FD04268282903D0A9
:100BA000482903D1744600E06446256008FA07F539
:100BB0000AFA07F4AA432243426004370136E3E706
:100BC0008068084018BF01207047F0B5520000232C
:100BD00037240025AA4208BFF0BD070F04EB1076AA
:100BE000B0F1204F38BF07F130064E5545F00106F1
:100BF000023500018B55EDE700F0BCFDFFF700FE6C
:100C0000FFF7E6FDFFF724FE00F0EAFA00F066FECB
:100C10001F4C2049204A204601F0C4F800F040FA59
:100C2000D4F888008168012088470520A0701B48FF
:100C30001B4CA0471BA0A04720A0A04726A0A04770
:100C40002A482F4D01682AA0A8472E4E0120B04700
:100C500001462DA0A8470220B04701462EA0A84774
:100C60000320B047014630A0A84733A0A04700F0BA
:100C70009FFD044600F09CFD8442FBD86434FFF7DE
:100C8000B9FD10B1FFF7CCFDF4E7FFF7CFFDF1E7B9
:100C9000C40500202C0000200C0000206123000867
:100CA000C5210008776561637473747564696F2E7C
:100CB00074616F62616F2E636F6D0D0077656163A4
:100CC0007473747564696F2E616C69657870726590
:100CD00073732E636F6D0D00777777772E7765616D
:100CE00063742D74632E636E0D0A0D0004000020E2
:100CF00053797374656D436C6B3A25640D0A00007B
:100D00003120000849110008434B5F4148422069E7
:100D1000732025640D0A0000434B5F41504231208F
:100D200069732025640D0A00434B5F415042322015
:100D300069732025640D0A006D7363205465737414
:100D40000D00000080B5FFF7D7FD002080BD00201A
:100D500070470020704780B5084611464FF4806206
:100D6000FFF7D0FD002080BD0020704780B5084609
:100D700011464FF48062FFF7D5FD002080BDB0B56D
:100D8000D0F88C50044695F8140480B1D4F888004B
:100D90008121426B2046904795F80204022818BF33
:100DA000B0BDFFF738FABDE8B04000F071BED5F82D
:100DB00010040028EAD095F802040028E6D1D4F8FF
:100DC00088000221426B20469047DFE710B5D0F83B
:100DD0008C4094F80224022A08D1D0F888104A6B7B
:100DE00081219047002084F8020405E049B2B1F166
:100DF000FF3F01DC012A00D110BD0121BDE81040F8
:100E0000AFF30080B0B5D0F88C5004460A480D23EB
:100E1000C5F82804002085F8341405F58562812181
:100E200085F80104204600F07DFEFFF7F4F9BDE8E7
:100E3000B04000F02DBE00BF5553425310B50446DC
:100E4000D0F88C0090F80114CA1E022A05D2204660
:100E50000021BDE81040FFF7D5BF022909D190F865
:100E6000151400F21742204600F000FAB0F1FF3FDF
:100E700000DD10BD20460121EBE70000B0B5D0F841
:100E80008C50044695F80104012828D070BBD5F891
:100E90000C04D5F81014C5F82C04E08EC5F83014F5
:100EA0001F280DD1D5F808042949884208D195F8A2
:100EB0001514012904D895F8160408B111281CD37B
:100EC00095F8151420460522202300F01BFC022073
:100ED00085F802042046BDE8B040FFF750BF95F802
:100EE0001514FFF7ACF9B0F1FF3F00DDB0BD2046AF
:100EF0000121BDE8B040FFF785BFFFF7A0F9B0F1D1
:100F0000FF3FE7DD95F8010401380328EED3D5F85B
:100F10000404C8B1D4F88C10002281F834240422CF
:100F2000D1F8303481F80124D1F81024824238BF3E
:100F300010461A1A83B22046C1F8302481212A466D
:100F4000BDE8B04000F0EEBD20460021D1E700BF73
:100F500055534243D0F88C00002180F801147047AB
:100F600070B5D0F88C504C4E044600200121A5F8F5
:100F70000104C90706D03168C0B20968884701205A
:100F80000021F6E7FFF747F9BDE8704000F080BDAB
:100F9000D0F88C104FF480721F23A1F8012401F5C2
:100FA0008162022100F074BD10B50446D0F88800BB
:100FB0008121426A20469047D4F888000221426A83
:100FC000204690472046FFF7C5FF002010BDFFF7E1
:100FD00035BF000070B5134D044640F27C412846F1
:100FE000FFF7B3F8D4F88800C4F88C500E4E0021F7
:100FF000C022056A06F112032046A847D4F88800EB
:1010000006F1190300214FF48072056A2046A847B3
:101010000648D0E90610A06720462167FFF7A0FF29
:10102000002070BD48010020962200080C0000201E
:10103000FFF724BF10B504464878012817D0FF28D1
:101040001BD0FE281DD14888D8B9C888012818D1DE
:1010500091F90000B0F1FF3F13DC0F4800684069D0
:1010600080470E4908700120C4E90F1003E0097998
:101070002046FFF7ABFE002010BD488808B9C8889D
:1010800008B1022010BD91F900000028F9D42046D3
:10109000FFF77EFFEFE700BF000100206806002099
:1010A00080B54FF4C06000F031F814200121002217
:1010B000BDE88040AFF3008010B5184B1C6804F405
:1010C000E064A4F54074B4F5A06F31BF230A0D4C61
:1010D0001C6002239940C3F104030F2424FA03F394
:1010E0001A401143084A090140EA020383F8001339
:1010F0001C21012301EAD00100F01F0003FA00F0D7
:10110000885010BD0005FA0500E100E002490843DF
:1011100002490860704700BF0000FA050CED00E0CE
:10112000034A1140084303490860BFF34F8F7047DB
:1011300080FFFF1F08ED00E00248016841F0807168
:10114000016070472410024070B51D4A116801F01B
:101150000C031C49082B15D11368DB031A4B03D56C
:101160001468A40358BF0B4611681468102505EADB
:10117000D454C1F38341214401240F2938BF0224F0
:101180002144594314681368126803280CD8C4F327
:1011900003140FA60D4D345D21FA04F4DFE800F0CE
:1011A0000E020609214609E0002107E0C3F30220F0
:1011B00001E0C2F3C220285C24FA00F1084670BDA9
:1011C0000410024000127A0000093D00E8210008E6
:1011D00000000000000000000102030406070809E7
:1011E00080B54FF4400000F025F840F21770BDE8DC
:1011F000804000F005B800000D4AFFF72EB800BF90
:101200007346FEF7FBFF9E46094AFFF71DB800BF75
:101210007346FEF7F3FF9E46054AFFF706B800BF88
:101220007346FEF7EBFF9E46014AFFF70DB800BF7D
:101230000010024002490A6822F44002FFF719B880
:101240000410024080B51A44D0F88C3003EB8101C1
:10125000D1F840148A4206D900210522212300F04A
:1012600051FAFF2000E0002040B280BD2DE9F0419E
:10127000044610780D461646A0F11A01102929D906
:101280005A2800F01881032800F02381042800F078
:101290008881122800F0268115282ED02F2800F0F2
:1012A0003281432800F04381552826D0002840F0A1
:1012B0001682D4F88C60D6F81004002840F00F8213
:1012C000DFF830040068416828468847002840F06D
:1012D000BD8128E1DFE811F01700110003020302CD
:1012E0001100030203020302030227000302380075
:1012F00003020302590003029B00D4F88C0000256E
:10130000C0F80454F2E1D4F88C000821DFF8EC2393
:10131000C0F8041407214B1C00F043818BB2013943
:10132000D45CC454F7E7DFF8CC030023006800EB7B
:101330008500D0E90821D4F88C0000240C2C00F0A2
:10134000A58003550134F9E7DFF8A823D4F88C0011
:10135000126800EB850102EB8502536AC1F8403444
:10136000126AC1F83C240821C271C0F80414591E45
:101370000B0AC17083700B0C090E0170110A4370C7
:101380008171110C4171110E93E0D4F88C8098F8A2
:101390000104002800F017814646D6F848044FF4AF
:1013A0008067D6F844243146C8F80474B0F5806FDD
:1013B00038BF074606EB8500D0F83C04B7FBF0F0D9
:1013C00083B2CC480068D0F80CC02846E047B0F1A2
:1013D000FF3F40F34081BBB220468121324600F0FE
:1013E000A1FBD6F83004D6F84414D6F84824D21B12
:1013F0003944A0EB0700C6F84414C6F84824C6F8E0
:10140000300440F0CE80032086F80104C9E0D4F80F
:101410008C7097F80104002800F00B81D7F848641D
:1014200007EB8500D7F844243946B6F5806F28BF0E
:101430004FF48066D0F83C04B6FBF0F083B2AD48C0
:101440000068D0F810C02846E047B0F1FF3F40F3F5
:101450000781D7F84404D7F83014D7F84824831903
:10146000891B901BC7F84434C7F83014C7F84804E8
:1014700000F0FB80B0F5806F28BF4FF4806083B22E
:101480003A462046022100F003FB8AE00C23013992
:10149000C272C0F804340223C17103720823C370FE
:1014A000130A120C42720A0A837282710A0C090E24
:1014B0004271017175E0D4F88C0008218E4AC0F8A1
:1014C000041407214B1C6CD08BB20139D45CC4547A
:1014D000F8E7D4F88C0000210022122A3DD0815474
:1014E0000132FAE77178D4F88C00C9075BD18149E1
:1014F000096801EB8501C9690A79531D3279934264
:1015000038BF1A4651E07078800757D4D4F88C6001
:1015100020462946B6F84834D6F84424FFF792FE10
:10152000002800F1E2800025C6F80454DEE071498D
:1015300005EB8500D4F88C200968896901EB8000EF
:1015400041788B1CC2F804348B1C2AD001F10113A2
:1015500001399BB2C45CD454F6E70C2190F83924CD
:10156000C1717021017090F83814914213D001EBD1
:101570004102013100EB820292F84C3492F854445B
:1015800092F855240273CAB283704473043A18BFA8
:101590000A4680F838243179122928BF1221C0F870
:1015A00004140025A2E056496022C0F80424002A51
:1015B000F7D0013A93B2CC5CC454F8E7204600213E
:1015C000052224238FE098F91404002840F1878035
:1015D00048480068416828468847B8BBD6F80200EA
:1015E000294602BAC8F84424B6F80700000403BA32
:1015F0002046C8F84834FFF725FE002875D408EBCC
:101600008500D8F84434D8F84864D8F81024D0F8C5
:101610003C145943C8F844140221D0F83C0488F81B
:10162000011470438242C8F8480458D1D4F88C6041
:10163000B3E697F91404B0F1FF3F50DDDFF8B48052
:10164000D8F80000416828468847A0B1204600210C
:1016500002223A2347E0204600210422112342E0DF
:1016600020460021042203233DE0204600210025DE
:10167000FFF7C8FB3AE0D8F80000816828468847A1
:1016800020B120460021022227232CE0D6F80200B8
:10169000294602BAC7F84424B6F80700000403BA82
:1016A0002046C7F84834FFF7CDFD00281DD407EBCE
:1016B0008500D7F84434D7F84854D7F81024D0F828
:1016C0003C145943C7F84414D0F83C0468438242A0
:1016D000C7F8480403D1012187F80114CAE620465F
:1016E00000210522202300F00DF8FF2568B2BDE897
:1016F000F08100BF00010020C8220008D0220008AD
:10170000D822000810B5D0F88C00002490F83914C5
:1017100001EB4103013100EB830383F84C24CAB28F
:1017200083F85444043A18BF0A4680F8392410BD9F
:10173000B0B504460078062805D10D480068A0B170
:10174000C4F8020011E0094908688A6880180CD0C2
:101750004D68A11C0822FFF738FA04F1120128464F
:101760000422BDE8B040FFF730BAB0BDE8F7FF1F74
:10177000002102400B484FF47A710068B0FBF1F091
:101780000138B0F1807F00D3FEE70749F0224860BE
:101790000648027000228A6007220A605021017008
:1017A000704700BF0400002010E000E023ED00E0DF
:1017B00001480068704700BF40010020B0B50446F2
:1017C00024480D4684420DD02348844208D0234843
:1017D000844205D02248844202D0224884420BD160
:1017E000022000E00320FFF7AFFC00EB5500B0FB48
:1017F000F5F080B2A060B0BD0020F6E76FF35F2186
:101800004160704710B5134988420FD01249884291
:101810000FD0124988420FD0114988420FD0114988
:10182000884218BF10BD40F211440AE040F20E3465
:1018300007E040F2124404E040F2134401E040F2B9
:1018400014442046FFF7ECFC2046BDE81040FFF7AB
:10185000DFBC00BF0038014000480040004C0040A1
:101860000050004000440040C16841F40051C16094
:1018700070478A0901F01F011058C84000F00100AC
:101880007047426922F40072FEF7F0BC426922F40C
:101890008072FEF7EBBCC26822F4C062FEF7D8BCCF
:1018A000C26822F004021143C1607047026922F449
:1018B0004052FEF7BFBCC26822F008021143C1606B
:1018C0007047C26822F48052FEF7C2BC40780249D9
:1018D00040F08000086070474C5C004070B540F6F6
:1018E0001B10FFF789FC88BB40F20260FFF788FC01
:1018F000184C102103224FF480532046FFF712F9B1
:10190000154D20464FF48051A847144E3220B04761
:1019100020464FF48051FFF7FDF8204604210322B2
:101920004FF48053FFF7FEF83220B04704F580648F
:1019300004212046A8476420B04720460421FFF731
:10194000E9F83220B04720460421A847BDE870409E
:10195000FFF7F2BB00080140110B0008D90800088E
:101960008278032A01D10A790AB101207047D0F8A0
:101970008420D2681047000009480121016000213D
:10198000016041600161016841F41F4101607047DD
:10199000034801210160002141600321016070477B
:1019A000405C004070470000B0B5DD4B012A03D019
:1019B0007AB9BD4A126806E043EA8102126852060B
:1019C000B94A126808D402EB011101F108020C3186
:1019D00005E000210846B0BD02EB0112111D0968A7
:1019E000126800246FF39F2103EB42024B1C02F5A7
:1019F00080625B08A342EDD920CA013420F8025B63
:101A0000F8E700BFF0B5A84BE54C1B686AB10D01C3
:101A1000561C5D59760804EB450505F5806526B131
:101A200030F8027B013E80C5F9E703EB011042600C
:101A300044EA810048F6BF720168114081F030012C
:101A40000160F0BDD64B01F07F0049B2B1F1FF3F1C
:101A500053F8202043EA80000BDD510406D50168CD
:101A600048F68F72114001F5804101604BF68F718D
:101A700009E0510605D5016848F68F7211404031E2
:101A8000016048F6BF71026811400160704700BFF5
:101A9000B0B501F07F04002504EB440400EB84049E
:101AA000A261D0F88820E583A383926ABDE8B040A4
:101AB0001047000070B57C494022002348F68F741F
:101AC00009680A604B6080238B600287828248F23B
:101AD000FF720423CA60B24901220C2B08D043EAEA
:101AE000010504332E68A643164301322E60F4E745
:101AF0000A6892B20A6043F220220A608022CA6415
:101B00000121817070BD00BF01F07F00A4494BF638
:101B10008F7351F820201A4082F4405241F820205F
:101B2000704700BFF8B501F07F0115461C4601EB78
:101B3000410200EB82073E8F9E4288BF1E46D0F8CE
:101B400088003246C36A28469847A01BA7F842601F
:101B5000A7F84000A819F863F8BD0000F0B5DC78DC
:101B60004DA593F902608E4F04F0030455F824400C
:101B700006F07F052C4347F8254047EA8504B6F177
:101B8000FF3F9B882EDD05EB450600EB8600838238
:101B9000B1B3012939D1206848F68F6697B2120C8B
:101BA000304048F68F7600F5807020602068304025
:101BB0002E01403020603C483F2B0068875100EBED
:101BC0000516B26023BF4FF0FF3202EB431242F41E
:101BD00000424FF400723EBF02EB4322334B1A40E7
:101BE000726023E005EB4506012900EB86000387C0
:101BF00035D000294FD12C49280109680A5020E02E
:101C00002948006800EB0510826027483F2B0068D8
:101C100006D34FF0FF3202EB431242F4004205E0DC
:101C20004FF4007202EB4322204B1A4000EB0510E8
:101C3000C26069B101292ED120684BF68F7108402E
:101C40002060206848F6BF71084080F0200021E045
:101C500020684BF68F71084080F400501AE020682D
:101C600048F68F6193B208400F4900F580702060FC
:101C7000280109680B5001EB0510110C816048F632
:101C8000BF71206808404BF68F7180F030002060F3
:101C9000206808402060F0BD000200000004000041
:101CA00000000000000600000800002000FCFF0308
:101CB00010B53B4A01F07F0349B2B1F1FF3F52F842
:101CC000234042EA830213DD610406D5116848F619
:101CD0008F74214001F58041116003EB43014BF605
:101CE0008F7300EB810000F116014FF4405010E0BB
:101CF000610605D5116848F68F74214040311160A6
:101D000003EB430148F6BF7300EB810000F13A0199
:101D1000302000240C70116819404840106010BD3C
:101D2000005C004011F07F020DD04BB21C49B3F1B2
:101D3000FF3F17DD02EB420300EB830001238375B5
:101D400041EA820007E0164848F6BF720168114078
:101D500081F01001016001684BF68F72114081F42F
:101D600080510EE002EB420300EB8300012380F878
:101D70003A3041EA820048F6BF720168114081F0B2
:101D800010010160704700BF054A01F07F0049B2B1
:101D900052F8200000EAD11000F03000704700BF78
:101DA000005C0040B0B5114B114D04460E48C4E92B
:101DB000175304F1800560660E4B87480EC50E4A26
:101DC000C0E9002448680121C079E171022101EADB
:101DD0005010207118688047D4F88000C068C0682F
:101DE000BDE8B040FFF7A4BCC30300080F0400081F
:101DF00047040008C0000020080100022DE9FC474C
:101E0000894E7068ADF8060070683168084020F0AF
:101E1000FF00ADF8040070484468BDF90400B0F15B
:101E2000FF3F21DDBDF80400C0040AD56FF48050E7
:101E30007060E078A070607A18B9D4F888004069C2
:101E40008047BDF80400000577D53068C00674D41B
:101E5000A078E179E07004200029A07068D0D4F85F
:101E600088000069804765E0A6F1400748F60F78D2
:101E700040F68F797068ADF806000004D2D5BDF841
:101E80000600BDF8062000F00F05D20647EA8500DF
:101E9000016812D40906EDD5016801EA0801016064
:101EA00005EB450004EB8000B0F840308BB3C26B0B
:101EB00020462946FFF736FEDCE70904DAD501683B
:101EC00001EA09010160006800051BD4D4F88810FC
:101ED00005EB4500B246002204EB80060B6BB069AF
:101EE00029469847B169B28B0144B161F18B014435
:101EF000F18389B2914202D2B18A884210D2326E05
:101F0000564607E0002D4DD1E26D20460021904756
:101F1000B0E7426E002AADD0204629469047A9E797
:101F2000D4F888002946826A204690475646A1E7A1
:101F30000320A0716FF400607060BDF8040080059C
:101F400008D56FF4007070601748006810B1016820
:101F500020468847BDF80400C00517D56FF480708F
:101F60007060A07990B10138A07100060ED1306880
:101F7000617A21B1002120F01000617205E0012199
:101F800040F0100061720321A1713060BDF80400BF
:101F9000400507D56FF480607060D4F88800C1698F
:101FA00020468847BDE8FC87640600201E4801687B
:101FB00021F004010160016821F00801016070470F
:101FC00005484068007A012804D11748016841F0AB
:101FD00010010160704700BF5C0600204A7802A330
:101FE00053F82220104700BF31060008DB04000828
:101FF000B506000865070008B5060008B906000820
:10200000570500086107000833050008E1060008CD
:1020100011060008B3070008CD0700080248016850
:1020200041F00C0101607047405C004001207047A6
:102030000FB4054B10B503A9044A029800F018F834
:1020400010BC5DF814FB0000ED0A00080000002041
:1020500002E008C8121F08C1002AFAD17047704771
:10206000002001E001C1121F002AFBD170470000CF
:102070002DE9FF4F89B09B460446002506E0252840
:102080000BD05A460B999047641C6D1C2078002891
:10209000F5D10DB02846BDE8F08F0027B8460122E3
:1020A000474900E0074314F8013F203B02FA03F0E0
:1020B0000842F7D120782E2819D114F8010F47F0E3
:1020C00004072A280ED06FF02F022078A0F13001EB
:1020D00009290CD808EB880102EB410100EB01084B
:1020E000641CF2E70A98641C50F8048B0A9020786C
:1020F0000028CED0642808D0692806D075281ED0C4
:102100005A460B9990476D1C58E00A994FF00A09FE
:1021100001C90A91002802DA40422D2102E0390566
:1021200004D52B218DF82010012103E0F90704D0FC
:102130002021F7E78A4608AE0DE00021FAE70A9968
:102140004FF00A0901C90A91F7E74946FEF708F876
:10215000303106F8011D0028F7D1ADEB060000F183
:102160002009780701D44FF00108C84502DDA8EB2B
:10217000090000E000208046002706E008A85A4633
:10218000C05D0B9990476D1C7F1C5745F6DB04E042
:1021900030205A460B9990476D1CB8F10001A8F108
:1021A0000108F5DC05E016F8010B5A460B9990473B
:1021B0006D1CB9F10001A9F10109F4DC641C65E7AB
:1021C0000928010010B5044601E0FEF78FFC14F861
:1021D000010B04490028F8D1BDE810400A20FEF7A1
:1021E00085BC000000000020000000000102030484
:1021F000160347006900670061004400650076002F
:10220000690063006500000000000000000000009D
:1022100000000000000000000000000000000000BE
:1022200000000000000000000000000000000000AE
:10223000000000000000000000000000000000009E
:10224000000000000000000000000000000000008E
:10225000000000000000000000000000000000007E
:10226000000000000000000000000000000000006E
:102270000000008000011F0000004744333220208E
:102280002020494E5445524E414C20464C41534823
:102290002020312E303009022000010100C0320917
:1022A00004000002080650000705810240000007F4
:1022B0000502024000001201000200000040E9286F
:1022C0008F1200010102030100060000000000005F
:1022D0000000000000000000000000005C80831A85
:1022E0000347004400330032002D005500530042E4
:1022F000005F004D0053004300000000000000009C
:1023000000000000000000000000000000000000CD
:1023100000000000000000000000000000000000BD
:1023200000000000000000000000000000000000AD
:10233000000000000000000000000000000000009D
:10234000000000000000000000000000000000008D
:10235000000000000000000000000000000000007D
:10236000000D0A57654163742053747564696F20CA
:10237000436F726520426F6172640D0004030904AB
:10238000A02300080000002040010000B001000868
:1023900048240008400100203009000060200008A7
:1023A0006158D8B805006000409DD50F0008A90FFE
:1023B0000008351000082FCF0F000831100008B6B4
:1023C0002200089622520807832C0100201A032FAE
:1023D0007919000891190008A5190008CD182C08D2
:1023E0001D200008AD1F0008C11F2C08B51A0008E9
:1023F0005D1B0008451A2C08091B0008051A000877
:10240000A9192C08251D0008B11C0008891D2C08DD
:1024100004010020450D0008690D2C08530D00082B
:10242000570D00086D0D56084F0D00083772220039
:1024300008000442683E7C230008F0210008DF22E7
:0824400000083C5220000000DE
:0400000508000105E9
:00000001FF
