:020000040800F2
:100000001004002019010008950100089101000862
:10001000930100088D01000865030008000000003E
:100020000000000000000000000000004502000881
:100030008F01000800000000F501000847020008D9
:10004000330100083301000833010008F9010008FA
:1000500033010008330100083301000833010008B0
:1000600033010008330100083301000833010008A0
:100070003301000833010008330100083301000890
:100080003301000833010008330100083301000880
:100090003301000833010008330100083301000870
:1000A0003301000833010008330100083301000860
:1000B0003301000833010008330100083301000850
:1000C0003301000833010008330100083301000840
:1000D0003301000833010008330100083301000830
:1000E000330100083301000833010008000000005C
:1000F0000000000000000000000000000000000000
:1001000033010008DFF80CD000F02EF8004800475B
:10011000850500081004002006488047064800476F
:10012000FEE7FEE7FEE7FEE7FEE7FEE7FEE7FEE7A7
:10013000FEE7FEE74D0200080501000830B50B465A
:10014000014600202022012409E021FA02F59D4207
:1001500005D303FA02F5491B04FA02F52844151EDB
:10016000A2F10102F1DC30BD064C074D06E0E0686B
:1001700040F0010394E8070098471034AC42F6D3EE
:10018000FFF7C4FF2410000844100008FEE7704782
:10019000FEE7FEE77047016841F480710160704737
:1001A00000F01F010122800902FA01F1704708687E
:1001B00020F0100008607047835823EA0101815045
:1001C00070470A6822EA000008607047026102690D
:1001D0001143016170478358194381507047C260D1
:1001E000C2681143C16070471143416170471043B9
:1001F000086070477047000010B5012000F018FC3F
:10020000E0B1012000F010FC00F020FC00F0ACFB9D
:100210000B49884204D1002000F0AEFB00F016FC30
:100220007B4C0421204600F0A7F9421E204618BF4F
:1002300001220421BDE8104000F04AB910BD00BF02
:1002400080510100704700F029B9000018B54048FE
:10025000016841F00101016001688907FCD541682E
:1002600041F0800141600021009100994F2902D89E
:1002700000990131F8E7416841F0900141600021A7
:10028000009100994F2902D800990131F8E741689F
:10029000304A314B21F00301416001681140016097
:1002A000416819404160016811400160016821F412
:1002B00080210160294943680B40436003681A406C
:1002C00002604FF41F028260026842F480320260D2
:1002D0004FF6FE72531E0468934203D214F40032A8
:1002E0001A46F7D00268920300D4FEE7426801F58F
:1002F0004301426042684260426842F48062426068
:10030000426822F440324260426842F44032426025
:1003100042681140124A41604168114341600168DE
:1003200041F08071016001688901FCD5416821F0CC
:1003300003014160416841F00201416041680907E1
:10034000FCD54FF000600021BDE8184000F0E0B996
:1003500000100240FFFFF6FE0C00FFE8FFFF00F771
:1003600000002808FEE70000A0F10B011F2904D8B7
:10037000104941EA8000143007E0411E092984BF7A
:10038000002070470B4941EA80000088704700BF99
:10039000A0F10B021F2A04D8064A42EA800014305A
:1003A00005E0421E092A03D8024A42EA8000018081
:1003B000704700BF006C004080B500F0C9F9BDE88F
:1003C000804000F0BFB9000080B540F2026000F04C
:1003D00063FA4FF4C06000F05FFA0448282103225A
:1003E0000123BDE8804000F079B800BF000801405B
:1003F000B0B540F2036000F04FFA054C1021032223
:1004000004230425204600F069F86561B0BD00BFF3
:10041000000C0140B0B540F2026000F03DFA40F23D
:100420000E6000F039FA294C182103224FF40073B2
:10043000A4F54055284600F051F82846042103222F
:100440004FF4806300F04AF8204600F095FB204608
:100450004FF4E13100F06CFB2046002100F0EBFB93
:100460002046002100F0DCFB2046002100F0CDFBFF
:100470002046002100F0C4FB2046002100F0BBFB19
:100480002046042100F0C6FB2046082100F0CDFBE9
:100490002046BDE8B04000F0A1BB00BF02480168A3
:1004A00001310160704700BF08000020B0B5074D62
:1004B0000446C1B2284600F05BFB2846072100F045
:1004C00092FB0028F9D02046B0BD00BF00380140A3
:1004D0001023002A08BF1423195070472DE9F04754
:1004E00001F00F0ACC0600F1140C00F1100E4FF0D1
:1004F00001094FF00F0848BF4AEA020A0026002708
:10050000082F17D009FA07F212EA03050FD0026884
:10051000282903D0482903D1744600E064462560A9
:1005200008FA06F50AFA06F4AA43224302600436E2
:100530000137E5E7082600274FF001094FF00F08C3
:10054000102E08BFBDE8F08709FA06F212EA03058B
:100550000FD04268282903D0482903D1744600E00F
:100560006446256008FA07F50AFA07F4AA4322430D
:10057000426004370136E3E7C068084018BF012035
:100580007047000000F0D6F800F0AEFAFFF730FF39
:10059000FFF71AFFFFF73EFF1B481C4CA0471CA0AB
:1005A000A04721A0A04727A0A0472B482F4C0168B7
:1005B0002AA0A0472E4D0120A84701462DA0A04704
:1005C0000220A84701462FA0A0470320A8470146C4
:1005D00030A0A04700F0DCF900F0A4FA314C054649
:1005E00000F0A0FA8542FBD800F09CFA054600F026
:1005F0004BFAC1B2C0F30722C0F30743204600F014
:100600001FFB05F57A75EBE707100008C50F00081A
:10061000776561637473747564696F2E74616F625A
:10062000616F2E636F6D0D00776561637473747510
:1006300064696F2E616C69657870726573732E637F
:100640006F6D0D00777777772E77656163742D7402
:10065000632E636E0D0A0D0004000020537973743D
:10066000656D436C6B3A25640D0A0000410C00086F
:100670005D070008434B5F414842206973202564B1
:100680000D0A0000434B5F41504231206973202521
:10069000640D0A00434B5F415042322069732025AC
:1006A000640D0A00F00F000810B5184B1C6804F424
:1006B000E064A4F54074B4F5A06F31BF230A0D4C7B
:1006C0001C6002239940C3F104030F2424FA03F3AE
:1006D0001A401143084A090140EA020383F8001353
:1006E0001C21012301EAD00100F01F0003FA00F0F1
:1006F000885010BD0005FA0500E100E002490843FA
:1007000002490860704700BF0000FA050CED00E0E8
:10071000034A1140084303490860BFF34F8F7047F5
:1007200080FFFF1F08ED00E00148FFF734BD00BF68
:10073000007000400248016841F08071016070471C
:10074000241002406448016821F480310160704740
:100750006148016841F480310160704770B51D4AFD
:10076000116801F00C031C49082B15D11368DB0339
:100770001A4B03D51468A40358BF0B4611681468BC
:10078000102505EAD454C1F38341214401240F29E3
:1007900038BF02242144594314681368126803289F
:1007A0000CD8C4F303140FA60D4D345D21FA04F4E4
:1007B000DFE800F00E020609214609E0002107E00B
:1007C000C3F3022001E0C2F3C220285C24FA00F146
:1007D000084670BD0410024000127A0000093D0076
:1007E000E80F000800000000000000000102030400
:1007F000060708097346FFF7D3FC9E46324AFFF707
:10080000EABC00BFA0B110281ED0B0F5106F27D0F1
:10081000B0F5006F2FD0182839D11E492A4A00237D
:100820001068C0F3406099B393BB01390346F7E702
:10083000254A00234FF4A0611068C0F3400039B38B
:1008400033BB01390346F7E71F4A00234FF6FF7118
:100850001068C0F34040D9B1D3B901390346F7E776
:100860000C49194A0023506AC0F3400081B17BB99A
:1008700001390346F7E7144A00236FF07C41106A00
:10088000C0F3400021B11BB901390346F7E700204E
:10089000704700BFFFFF0F007346FFF781FC9E46C5
:1008A000094AFFF798BC00BF7346FFF779FC9E46E4
:1008B000054AFFF781BC00BF7346FFF771FC9E46F7
:1008C000014AFFF788BC00BF0010024002490A68D5
:1008D00022F44072FFF78BBC2010024070B50D4629
:1008E000044601281AD11F4E40F21B70B04740F257
:1008F0001C70B047FFF718FFFFF75EFD4FF4006074
:10090000FFF778FF4FF40060FFF77CFF4FF4807033
:10091000FFF7DCFF40F60F00B04705E040F21C7027
:10092000FFF7BAFFFFF700FF00F0A2F800F08EF823
:100930006DB14FF4C060FFF7E1FE032001210022FA
:10094000FFF7B2FE284600F079F800F07FF8012C9E
:1009500018BF70BD47F6FF7000F07EF8BDE870402C
:1009600000F074B89908000802484168006841EA3C
:10097000004070471828004042490A6842F01002BF
:100980000A60020C80B24A618861FFF710BC00BFA8
:1009900080B513A000F054F915A000F013FB01205E
:1009A000FFF7E2FC4AF2A551884208D118A000F0F6
:1009B00009FB00200121BDE88040FFF78FBF0DA09B
:1009C00000F000FB01200121FFF788FF0C2000F060
:1009D00074F801204AF2A551BDE88040FFF7D8BC69
:1009E0003E20225254432044656D6F2200000000D7
:1009F0000D000000525443206E6F742079657420FE
:100A0000636F6E66696775726564202E2E2E0D0009
:100A100052544320636F6E66696775726564202E59
:100A20002E2E200D000000001649FFF7CABB00BFA4
:100A300014490968084018BF0120704702490A6834
:100A400010430860704700BF002800400D4801684F
:100A50008906FCD5704700BF0A490A6842F01002B7
:100A60000A60C0F3034280B24A608860FFF79FBB10
:100A70000448016821F00801016001680907FCD5FC
:100A8000704700BF0428004080B5FFF76DFF4FF4AA
:100A90006161B0FBF1F202FB1100D3B23C2281B2E2
:100AA000B1FBF2F1CAB24942A0EB810043EA022253
:100AB00000F03F0042EA004080BD10B5C0F307419E
:100AC000C2B24FF46163C0F3072002FB0311C0EB15
:100AD000001001EB8004FFF7B9FF2046FFF74CFF41
:100AE000BDE81040FFF7B2BF0B484FF47A710068C1
:100AF000B0FBF1F00138B0F1807F00D3FEE7074989
:100B0000F02248600648027000228A6007220A60CC
:100B100050210170704700BF0400002010E000E089
:100B200023ED00E001480068704700BF0800002086
:100B3000B0B5044624480D4684420DD02348844273
:100B400008D02348844205D02248844202D022485B
:100B500084420BD1022000E00320FFF7FFFD00EBF1
:100B60005500B0FBF5F080B2A060B0BD0020F6E704
:100B70006FF35F214160704710B5134988420FD071
:100B8000124988420FD0124988420FD01149884239
:100B90000FD01149884218BF10BD40F211440AE03D
:100BA00040F20E3407E040F2124404E040F21344F5
:100BB00001E040F214442046FFF77EFE2046BDE8E7
:100BC0001040FFF771BE00BF0038014000480040F0
:100BD000004C00400050004000440040C16841F417
:100BE0000051C16070478A0901F01F011058C840C8
:100BF00000F001007047426922F40072FFF7F4BA76
:100C0000426922F48072FFF7EFBAC26822F4C06230
:100C1000FFF7E5BAC26822F004021143C1607047D1
:100C2000026922F44052FFF7D1BAC26822F00802EA
:100C30001143C1607047C26822F48052FFF7CFBAF7
:100C40000FB4054B10B503A9044A029800F018F838
:100C500010BC5DF814FB0000AD040008000000208B
:100C600002E008C8121F08C1002AFAD17047704775
:100C7000002001E001C1121F002AFBD170470000D3
:100C80002DE9FF4F8BB088460546002606E0252853
:100C90000BD0DDE90D1290476D1C761C28780028DA
:100CA000F5D10FB03046BDE8F08F0024A146A24632
:100CB0000122AE4900E0044315F8013F203B02FA4F
:100CC00003F00842F7D128782A2810D06FF02F02BD
:100CD0002878A0F13001092915D809EB890102EB28
:100CE000410144F0020400EB01096D1CF0E758F8E3
:100CF000041B5FEA010903D544F40054C9F100095B
:100D000044F002046D1C28782E2817D115F8010F25
:100D100044F004042A280ED06FF02F022878A0F1A6
:100D2000300109290AD80AEB8A0102EB410100EBE4
:100D3000010A6D1CF2E758F804AB6D1C28786C288A
:100D40000FD006DC4C2817D068280DD06A2814D1A3
:100D500004E0742810D07A280FD10DE044F4001478
:100D60000AE044F4801401E044F4401469788142BC
:100D700002D104F580146D1C6D1C2878692865D09B
:100D800006DC00288DD0632827D0642806D15DE0DA
:100D90006E2808D073282AD0752877D0DDE90D1287
:100DA0009047761CE0E0C4F30250022809D00328E3
:100DB0000DD0D8F8001004280DD00E6008F10408FA
:100DC000D2E0D8F80010F217C1E90062F6E7D8F8CF
:100DD00000100E80F2E70E70F0E718F8041B8DF893
:100DE000001000208DF80100EB46012003E058F8C8
:100DF00004BB4FF0FF3061074FF0000701D40AE059
:100E00007F1C57450DDA8742FADB1BF807100029D3
:100E1000F6D106E07F1C8742FCDB1BF80710002997
:100E2000F8D1DDE90D23A9EB07008146214600F04A
:100E3000B1F83044C61904E0DDE90D121BF8010BCE
:100E400090477F1EF8D22146484688E058F8040BA8
:100E5000C4F302514FF00A0B032900D100B2042958
:100E600000D140B2002802DA40422D2102E02105E3
:100E700005D52B218DF82410012104E006E0E107BF
:100E800010D02021F6E708AF089113E058F8040BC2
:100E9000C4F302514FF00A0B032900D180B2042998
:100EA00000D1C0B20021EEE75946FFF747F93031D3
:100EB00007F8011D0028F7D1ADEB070000F1200B6A
:100EC000600702D524F4803401E04FF0010ADA45CE
:100ED00002DDAAEB0B0000E00020824600EB0B01D4
:100EE00008980144A9EB01000A90E00306D4DDE96B
:100EF0000D2321460A9800F04DF806444FF00009F2
:100F000008E009A911F80900DDE90D12904709F17F
:100F10000109761C08998945F3DBE0030CD5DDE96E
:100F20000D2321460A9800F035F8064404E0DDE977
:100F30000D1230209047761CBAF10001AAF1010A87
:100F4000F5DC05E0DDE90D1217F8010B9047761C82
:100F5000BBF10001ABF1010BF4DC0A982146DDE99D
:100F60000D2300F005F806446D1C97E609280100E2
:100F70002DE9F041044600251E461746880404D496
:100F800005E039462020B0476D1C641EF9D528467F
:100F9000BDE8F0812DE9F041044600251E4690464B
:100FA000C80301D5302700E02027880404D505E0D8
:100FB00041463846B0476D1C641EF9D52846BDE849
:100FC000F081000010B5044601E0FFF76FFA14F855
:100FD000010B04490028F8D1BDE810400A20FFF7B2
:100FE00065BA0000000000200000000001020304B8
:100FF00074696D653A20253032643A253032643A9E
:10100000253032640D0A000D0A5765416374205380
:10101000747564696F20436F726520426F617264FA
:101020000D0000004810000800000020080000002B
:10103000600C0008501000080800002008040000A0
:10104000700C0008000000000000000000F36F06B4
:0400000508000105E9
:00000001FF
